{
  "contractName": "DaiDaddy",
  "abi": [
    {
      "constant": true,
      "inputs": [
        {
          "name": "",
          "type": "uint256"
        }
      ],
      "name": "debtBook",
      "outputs": [
        {
          "name": "cupId",
          "type": "bytes32"
        },
        {
          "name": "owner",
          "type": "address"
        },
        {
          "name": "discount",
          "type": "uint8"
        },
        {
          "name": "status",
          "type": "uint8"
        }
      ],
      "payable": false,
      "stateMutability": "view",
      "type": "function"
    },
    {
      "constant": true,
      "inputs": [],
      "name": "saiTubContract",
      "outputs": [
        {
          "name": "",
          "type": "address"
        }
      ],
      "payable": false,
      "stateMutability": "view",
      "type": "function"
    },
    {
      "inputs": [
        {
          "name": "_saiTubAddress",
          "type": "address"
        }
      ],
      "payable": false,
      "stateMutability": "nonpayable",
      "type": "constructor"
    },
    {
      "constant": false,
      "inputs": [
        {
          "name": "_cdpId",
          "type": "bytes32"
        },
        {
          "name": "discount",
          "type": "uint256"
        }
      ],
      "name": "sellCDP",
      "outputs": [],
      "payable": false,
      "stateMutability": "nonpayable",
      "type": "function"
    },
    {
      "constant": true,
      "inputs": [
        {
          "name": "_art",
          "type": "uint256"
        },
        {
          "name": "_ire",
          "type": "uint256"
        },
        {
          "name": "_discount",
          "type": "uint256"
        }
      ],
      "name": "debtPrice",
      "outputs": [
        {
          "name": "",
          "type": "uint256"
        }
      ],
      "payable": false,
      "stateMutability": "pure",
      "type": "function"
    },
    {
      "constant": true,
      "inputs": [],
      "name": "saiTubAddress",
      "outputs": [
        {
          "name": "",
          "type": "address"
        }
      ],
      "payable": false,
      "stateMutability": "view",
      "type": "function"
    }
  ],
  "bytecode": "0x608060405234801561001057600080fd5b506040516020806106d08339810180604052602081101561003057600080fd5b810190808051906020019092919050505080600160006101000a81548173ffffffffffffffffffffffffffffffffffffffff021916908373ffffffffffffffffffffffffffffffffffffffff1602179055505061063e806100926000396000f3fe608060405234801561001057600080fd5b50600436106100575760003560e01c806335e2937b1461005c5780637cd73dcb146100f35780638572c9191461012b57806397a8d81d14610175578063d6f471a5146101bf575b600080fd5b6100886004803603602081101561007257600080fd5b8101908080359060200190929190505050610215565b604051808581526020018473ffffffffffffffffffffffffffffffffffffffff1673ffffffffffffffffffffffffffffffffffffffff1681526020018360ff1660ff1681526020018260028111156100dc57fe5b60ff16815260200194505050505060405180910390f35b6101296004803603604081101561010957600080fd5b81019080803590602001909291908035906020019092919050505061028c565b005b61013361054b565b604051808273ffffffffffffffffffffffffffffffffffffffff1673ffffffffffffffffffffffffffffffffffffffff16815260200191505060405180910390f35b61017d610575565b604051808273ffffffffffffffffffffffffffffffffffffffff1673ffffffffffffffffffffffffffffffffffffffff16815260200191505060405180910390f35b6101ff600480360360608110156101d557600080fd5b8101908080359060200190929190803590602001909291908035906020019092919050505061059b565b6040518082815260200191505060405180910390f35b6000818154811061022257fe5b90600052602060002090600202016000915090508060000154908060010160009054906101000a900473ffffffffffffffffffffffffffffffffffffffff16908060010160149054906101000a900460ff16908060010160159054906101000a900460ff16905084565b6102946105d4565b600160009054906101000a900473ffffffffffffffffffffffffffffffffffffffff1673ffffffffffffffffffffffffffffffffffffffff1663fdac0025846040518263ffffffff1660e01b81526004018082815260200191505060806040518083038186803b15801561030757600080fd5b505afa15801561031b573d6000803e3d6000fd5b505050506040513d608081101561033157600080fd5b8101908080519060200190929190805190602001909291908051906020019092919080519060200190929190505050846000018560200186604001876060018481525084815250848152508473ffffffffffffffffffffffffffffffffffffffff1673ffffffffffffffffffffffffffffffffffffffff1681525050505050600160009054906101000a900473ffffffffffffffffffffffffffffffffffffffff1673ffffffffffffffffffffffffffffffffffffffff168330604051602401808381526020018273ffffffffffffffffffffffffffffffffffffffff1673ffffffffffffffffffffffffffffffffffffffff168152602001925050506040516020818303038152906040527fbaa8529c000000000000000000000000000000000000000000000000000000007bffffffffffffffffffffffffffffffffffffffffffffffffffffffff19166020820180517bffffffffffffffffffffffffffffffffffffffffffffffffffffffff83818316178352505050506040518082805190602001908083835b602083106104de57805182526020820191506020810190506020830392506104bb565b6001836020036101000a038019825116818451168082178552505050505050905001915050600060405180830381855af49150503d806000811461053e576040519150601f19603f3d011682016040523d82523d6000602084013e610543565b606091505b505050505050565b6000600160009054906101000a900473ffffffffffffffffffffffffffffffffffffffff16905090565b600160009054906101000a900473ffffffffffffffffffffffffffffffffffffffff1681565b600068056bc75e2d6310000082606403670de0b6b3a7640000600a86816105be57fe5b0403860202816105ca57fe5b0490509392505050565b6040518060800160405280600073ffffffffffffffffffffffffffffffffffffffff168152602001600081526020016000815260200160008152509056fea165627a7a72305820195c3857d80a42ce0ce133718ea01624baeff20fada0e66781c77bea226ab4bf0029",
  "source": "pragma solidity^0.5.0;\n\n/// @title DaiDaddy: secondary market to let people sell CDP's with outstanding debt\n/// @author Chris Maree\n\nimport \"./mocks/tub.sol\";\n\ncontract DaiDaddy {\n\n    enum Status {LISTED, BOUGHT, CANCLED}\n\n    struct Debt {\n        bytes32 cupId;\n        address owner;\n        uint8 discount; //percentage discount (no decimal)\n        Status status;\n    }\n\n    struct Cup {\n        address  lad;      // CDP owner\n        uint256  ink;      // Locked collateral (in SKR)\n        uint256  art;      // Outstanding normalised debt (tax only)\n        uint256  ire;      // Outstanding normalised debt\n    }\n\n    Debt[] public debtBook;\n\n    SaiTub public saiTubContract;\n\n    constructor(address _saiTubAddress) public {\n        saiTubContract = SaiTub(_saiTubAddress);\n    }\n\n    function sellCDP(bytes32 _cdpId, uint256 discount) public{\n        Cup memory cup;\n        (cup.lad, cup.ink, cup.art, cup.ire) = saiTubContract.cups(_cdpId);\n        // return cup.lad;\n        // Cant verify the lad of the cup becuase maker uses a proxy contract for deployments. In this case of the hackathon it is fine becuase\n        // if someone tried to sell a cup that they did not own it would be rejected by maker. \n\n\n        // _e.delegatecall(bytes4(keccak256(\"setN(uint256)\")), _n); // D's storage is set, E is not modified \n\n\n        address(saiTubContract).delegatecall(abi.encodeWithSignature(\"give(bytes32,address)\", _cdpId, address(this)));\n    }\n\n    function debtPrice(uint _art, uint _ire, uint _discount) public pure returns(uint){\n        return _art * (_ire/10 - 10 ** 18) * (100 - _discount) / 10 ** 20;\n    }\n\n    function saiTubAddress() public view returns (address){\n        return address(saiTubContract);\n    }\n}",
  "sourcePath": "/Users/chris/Projects/daidaddy/contracts/DaiDaddy.sol",
  "compiler": {
    "name": "solc",
    "version": "0.5.8+commit.23d335f2.Emscripten.clang"
  },
  "schemaVersion": "3.0.16",
  "updatedAt": "2019-10-19T15:35:11.648Z",
  "devdoc": {
    "methods": {}
  },
  "userdoc": {
    "methods": {}
  }
}