{
  "contractName": "DaiDaddy",
  "abi": [
    {
      "constant": true,
      "inputs": [
        {
          "name": "",
          "type": "uint256"
        }
      ],
      "name": "debtBook",
      "outputs": [
        {
          "name": "cupId",
          "type": "bytes32"
        },
        {
          "name": "owner",
          "type": "address"
        },
        {
          "name": "discount",
          "type": "uint8"
        },
        {
          "name": "status",
          "type": "uint8"
        }
      ],
      "payable": false,
      "stateMutability": "view",
      "type": "function"
    },
    {
      "constant": true,
      "inputs": [],
      "name": "saiTubContract",
      "outputs": [
        {
          "name": "",
          "type": "address"
        }
      ],
      "payable": false,
      "stateMutability": "view",
      "type": "function"
    },
    {
      "inputs": [
        {
          "name": "_saiTubAddress",
          "type": "address"
        }
      ],
      "payable": false,
      "stateMutability": "nonpayable",
      "type": "constructor"
    },
    {
      "constant": false,
      "inputs": [
        {
          "name": "_cdpId",
          "type": "bytes32"
        },
        {
          "name": "discount",
          "type": "uint256"
        }
      ],
      "name": "sellCDP",
      "outputs": [
        {
          "name": "",
          "type": "address"
        }
      ],
      "payable": false,
      "stateMutability": "nonpayable",
      "type": "function"
    }
  ],
  "bytecode": "0x608060405234801561001057600080fd5b5060405160208061046c8339810180604052602081101561003057600080fd5b810190808051906020019092919050505080600160006101000a81548173ffffffffffffffffffffffffffffffffffffffff021916908373ffffffffffffffffffffffffffffffffffffffff160217905550506103da806100926000396000f3fe608060405234801561001057600080fd5b50600436106100415760003560e01c806335e2937b146100465780637cd73dcb146100dd57806397a8d81d14610155575b600080fd5b6100726004803603602081101561005c57600080fd5b810190808035906020019092919050505061019f565b604051808581526020018473ffffffffffffffffffffffffffffffffffffffff1673ffffffffffffffffffffffffffffffffffffffff1681526020018360ff1660ff1681526020018260028111156100c657fe5b60ff16815260200194505050505060405180910390f35b610113600480360360408110156100f357600080fd5b810190808035906020019092919080359060200190929190505050610216565b604051808273ffffffffffffffffffffffffffffffffffffffff1673ffffffffffffffffffffffffffffffffffffffff16815260200191505060405180910390f35b61015d61034a565b604051808273ffffffffffffffffffffffffffffffffffffffff1673ffffffffffffffffffffffffffffffffffffffff16815260200191505060405180910390f35b600081815481106101ac57fe5b90600052602060002090600202016000915090508060000154908060010160009054906101000a900473ffffffffffffffffffffffffffffffffffffffff16908060010160149054906101000a900460ff16908060010160159054906101000a900460ff16905084565b6000610220610370565b600160009054906101000a900473ffffffffffffffffffffffffffffffffffffffff1673ffffffffffffffffffffffffffffffffffffffff1663fdac0025856040518263ffffffff1660e01b81526004018082815260200191505060806040518083038186803b15801561029357600080fd5b505afa1580156102a7573d6000803e3d6000fd5b505050506040513d60808110156102bd57600080fd5b8101908080519060200190929190805190602001909291908051906020019092919080519060200190929190505050846000018560200186604001876060018481525084815250848152508473ffffffffffffffffffffffffffffffffffffffff1673ffffffffffffffffffffffffffffffffffffffff1681525050505050806000015191505092915050565b600160009054906101000a900473ffffffffffffffffffffffffffffffffffffffff1681565b6040518060800160405280600073ffffffffffffffffffffffffffffffffffffffff168152602001600081526020016000815260200160008152509056fea165627a7a72305820c6d4d76f44d5c7dd916ae2be0a72c3306db006b8c5eebf50eec23f18a61e92990029",
  "source": "pragma solidity^0.5.0;\n\n/// @title DaiDaddy: secondary market to let people sell CDP's with outstanding debt\n/// @author Chris Maree\n\nimport \"./mocks/tub.sol\";\n\ncontract DaiDaddy {\n\n    enum Status {LISTED, BOUGHT, CANCLED}\n\n    struct Debt {\n        bytes32 cupId;\n        address owner;\n        uint8 discount; //percentage discount (no decimal)\n        Status status;\n    }\n\n    struct Cup {\n        address  lad;      // CDP owner\n        uint256  ink;      // Locked collateral (in SKR)\n        uint256  art;      // Outstanding normalised debt (tax only)\n        uint256  ire;      // Outstanding normalised debt\n    }\n\n    Debt[] public debtBook;\n\n    SaiTub public saiTubContract;\n\n    constructor(address _saiTubAddress) public {\n        saiTubContract = SaiTub(_saiTubAddress);\n    }\n\n    function sellCDP(bytes32 _cdpId, uint256 discount) public  returns (address){\n        Cup memory cup;\n        (cup.lad, cup.ink, cup.art, cup.ire) = saiTubContract.cups(_cdpId);\n        return cup.lad;\n    }\n}",
  "sourcePath": "/Users/chris/Projects/daidaddy/contracts/DaiDaddy.sol",
  "compiler": {
    "name": "solc",
    "version": "0.5.8+commit.23d335f2.Emscripten.clang"
  },
  "schemaVersion": "3.0.16",
  "updatedAt": "2019-10-19T13:57:17.081Z",
  "devdoc": {
    "methods": {}
  },
  "userdoc": {
    "methods": {}
  }
}