{
  "contractName": "SaiTub",
  "abi": [
    {
      "constant": true,
      "inputs": [],
      "name": "cupi",
      "outputs": [
        {
          "name": "",
          "type": "uint256"
        }
      ],
      "payable": false,
      "stateMutability": "view",
      "type": "function"
    },
    {
      "constant": true,
      "inputs": [
        {
          "name": "",
          "type": "bytes32"
        }
      ],
      "name": "cups",
      "outputs": [
        {
          "name": "lad",
          "type": "address"
        },
        {
          "name": "ink",
          "type": "uint256"
        },
        {
          "name": "art",
          "type": "uint256"
        },
        {
          "name": "ire",
          "type": "uint256"
        }
      ],
      "payable": false,
      "stateMutability": "view",
      "type": "function"
    },
    {
      "inputs": [
        {
          "name": "cupId",
          "type": "bytes32"
        },
        {
          "name": "_cupLad",
          "type": "address"
        },
        {
          "name": "_cupInk",
          "type": "uint256"
        },
        {
          "name": "_cupArt",
          "type": "uint256"
        },
        {
          "name": "_cupIre",
          "type": "uint256"
        }
      ],
      "payable": false,
      "stateMutability": "nonpayable",
      "type": "constructor"
    },
    {
      "constant": false,
      "inputs": [
        {
          "name": "cup",
          "type": "bytes32"
        },
        {
          "name": "guy",
          "type": "address"
        }
      ],
      "name": "give",
      "outputs": [],
      "payable": false,
      "stateMutability": "nonpayable",
      "type": "function"
    },
    {
      "constant": true,
      "inputs": [
        {
          "name": "cup",
          "type": "bytes32"
        }
      ],
      "name": "lad",
      "outputs": [
        {
          "name": "",
          "type": "address"
        }
      ],
      "payable": false,
      "stateMutability": "view",
      "type": "function"
    },
    {
      "constant": true,
      "inputs": [
        {
          "name": "cup",
          "type": "bytes32"
        }
      ],
      "name": "ink",
      "outputs": [
        {
          "name": "",
          "type": "uint256"
        }
      ],
      "payable": false,
      "stateMutability": "view",
      "type": "function"
    },
    {
      "constant": false,
      "inputs": [
        {
          "name": "cup",
          "type": "bytes32"
        }
      ],
      "name": "tab",
      "outputs": [
        {
          "name": "",
          "type": "uint256"
        }
      ],
      "payable": false,
      "stateMutability": "nonpayable",
      "type": "function"
    },
    {
      "constant": false,
      "inputs": [
        {
          "name": "cup",
          "type": "bytes32"
        }
      ],
      "name": "rap",
      "outputs": [
        {
          "name": "",
          "type": "uint256"
        }
      ],
      "payable": false,
      "stateMutability": "nonpayable",
      "type": "function"
    },
    {
      "constant": false,
      "inputs": [],
      "name": "chi",
      "outputs": [
        {
          "name": "",
          "type": "uint256"
        }
      ],
      "payable": false,
      "stateMutability": "nonpayable",
      "type": "function"
    }
  ],
  "bytecode": "0x608060405234801561001057600080fd5b5060405160a0806104f6833981018060405260a081101561003057600080fd5b81019080805190602001909291908051906020019092919080519060200190929190805190602001909291908051906020019092919050505060405180608001604052808573ffffffffffffffffffffffffffffffffffffffff168152602001848152602001838152602001828152506001600087815260200190815260200160002060008201518160000160006101000a81548173ffffffffffffffffffffffffffffffffffffffff021916908373ffffffffffffffffffffffffffffffffffffffff16021790555060208201518160010155604082015181600201556060820151816003015590505050505050506103c78061012f6000396000f3fe608060405234801561001057600080fd5b50600436106100885760003560e01c8063c92aecc41161005b578063c92aecc41461017d578063de5f55171461019b578063f7c8d63414610209578063fdac00251461024b57610088565b80631f3634ed1461008d57806349955431146100cf5780636f78ee0d146100ed578063baa8529c1461012f575b600080fd5b6100b9600480360360208110156100a357600080fd5b81019080803590602001909291905050506102ce565b6040518082815260200191505060405180910390f35b6100d76102ee565b6040518082815260200191505060405180910390f35b6101196004803603602081101561010357600080fd5b81019080803590602001909291905050506102f4565b6040518082815260200191505060405180910390f35b61017b6004803603604081101561014557600080fd5b8101908080359060200190929190803573ffffffffffffffffffffffffffffffffffffffff1690602001909291905050506102fb565b005b6101856102ff565b6040518082815260200191505060405180910390f35b6101c7600480360360208110156101b157600080fd5b8101908080359060200190929190505050610304565b604051808273ffffffffffffffffffffffffffffffffffffffff1673ffffffffffffffffffffffffffffffffffffffff16815260200191505060405180910390f35b6102356004803603602081101561021f57600080fd5b8101908080359060200190929190505050610344565b6040518082815260200191505060405180910390f35b6102776004803603602081101561026157600080fd5b810190808035906020019092919050505061034b565b604051808573ffffffffffffffffffffffffffffffffffffffff1673ffffffffffffffffffffffffffffffffffffffff16815260200184815260200183815260200182815260200194505050505060405180910390f35b600060016000838152602001908152602001600020600101549050919050565b60005481565b6000919050565b5050565b600090565b60006001600083815260200190815260200160002060000160009054906101000a900473ffffffffffffffffffffffffffffffffffffffff169050919050565b6000919050565b60016020528060005260406000206000915090508060000160009054906101000a900473ffffffffffffffffffffffffffffffffffffffff1690806001015490806002015490806003015490508456fea165627a7a7230582077c74121bb6b60d86caeef161067155ebf99bc59d594a4e1d0866cd3324fed440029",
  "source": "pragma solidity^0.5.3;\n\n\ncontract SaiTub {\n    uint256                   public  cupi;\n    mapping (bytes32 => Cup)  public  cups;\n\n    struct Cup {\n        address  lad;      // CDP owner\n        uint256  ink;      // Locked collateral (in SKR)\n        uint256  art;      // Outstanding normalised debt (tax only)\n        uint256  ire;      // Outstanding normalised debt\n    }\n\n    uint256 _chi;  // Accumulated Tax Rates\n\n\n    constructor(bytes32 cupId, address _cupLad, uint256 _cupInk, uint256 _cupArt, uint256 _cupIre) public {\n        cups[cupId] = Cup(_cupLad, _cupInk, _cupArt, _cupIre);\n    }\n\n    function give(bytes32 cup, address guy) public {\n        // require(msg.sender == cups[cup].lad);\n        // require(guy != 0);\n        // cups[cup].lad = guy;\n    }\n\n    //get the owner of a cup\n    function lad(bytes32 cup) public view returns (address) {\n        return cups[cup].lad;\n    }\n    \n    //get the amount of skr collateral locked in a cup\n    function ink(bytes32 cup) public view returns (uint) {\n        return cups[cup].ink;\n    }\n    \n    // get the amount of debt in a cup\n    function tab(bytes32 cup) public returns (uint) {\n        // return rmul(cups[cup].art, chi());\n    }\n    // get the amount of governance debt in a cup\n    function rap(bytes32 cup) public returns (uint) {\n        // return sub(rmul(cups[cup].ire, rhi()), tab(cup));\n    }\n\n    function chi() public returns (uint) {\n        // return _chi;\n    }\n}",
  "sourcePath": "/Users/chris/Projects/daidaddy/contracts/mocks/tub.sol",
  "compiler": {
    "name": "solc",
    "version": "0.5.8+commit.23d335f2.Emscripten.clang"
  },
  "schemaVersion": "3.0.16",
  "updatedAt": "2019-10-19T13:57:17.082Z",
  "devdoc": {
    "methods": {}
  },
  "userdoc": {
    "methods": {}
  }
}